{"abi":[{"type":"function","name":"AVALANCHEFUJI","inputs":[],"outputs":[{"name":"","type":"uint32","internalType":"uint32"}],"stateMutability":"view"},{"type":"function","name":"ETHEREUM","inputs":[],"outputs":[{"name":"","type":"uint8","internalType":"uint8"}],"stateMutability":"view"},{"type":"function","name":"POLYGON","inputs":[],"outputs":[{"name":"","type":"uint32","internalType":"uint32"}],"stateMutability":"view"},{"type":"function","name":"POLYGON_AMOY","inputs":[],"outputs":[{"name":"","type":"uint32","internalType":"uint32"}],"stateMutability":"view"},{"type":"function","name":"SEPOLIA","inputs":[],"outputs":[{"name":"","type":"uint32","internalType":"uint32"}],"stateMutability":"view"}],"bytecode":{"object":"0x60e9610038600b82828239805160001a607314602b57634e487b7160e01b600052600060045260246000fd5b30600052607381538281f3fe7300000000000000000000000000000000000000003014608060405260043610605b5760003560e01c806302bbb9e614606057806339e95f1b146083578063bc74cd6a14608c578063c8744dd8146094578063f7cdf47c14609b575b600080fd5b606962aa36a781565b60405163ffffffff90911681526020015b60405180910390f35b60696201388281565b606961a86981565b6069608981565b60a2600181565b60405160ff9091168152602001607a56fea264697066735822122049be7aba71589ad666bac0226ade05aaaed86362a1241182223fa403313d630264736f6c634300081a0033","linkReferences":{}},"methodIdentifiers":{"AVALANCHEFUJI()":"bc74cd6a","ETHEREUM()":"f7cdf47c","POLYGON()":"c8744dd8","POLYGON_AMOY()":"39e95f1b","SEPOLIA()":"02bbb9e6"},"id":55}