{"abi":[{"type":"constructor","inputs":[{"name":"_usdcTokenAddress","type":"address","internalType":"address"}],"stateMutability":"nonpayable"},{"type":"function","name":"createNewProject","inputs":[],"outputs":[],"stateMutability":"nonpayable"},{"type":"function","name":"getProject","inputs":[{"name":"_index","type":"uint256","internalType":"uint256"}],"outputs":[{"name":"","type":"address","internalType":"contract GoFundMe"}],"stateMutability":"view"},{"type":"function","name":"getProjectList","inputs":[],"outputs":[{"name":"","type":"address[]","internalType":"contract GoFundMe[]"}],"stateMutability":"view"},{"type":"function","name":"projectCount","inputs":[],"outputs":[{"name":"","type":"uint256","internalType":"uint256"}],"stateMutability":"view"},{"type":"event","name":"ProjectCreated","inputs":[{"name":"_owner","type":"address","indexed":true,"internalType":"address"},{"name":"_project","type":"address","indexed":false,"internalType":"contract GoFundMe"}],"anonymous":false}],"bytecode":{"object":"0x60a06040526000600255348015601457600080fd5b50604051613a9a380380613a9a8339810160408190526031916041565b6001600160a01b0316608052606f565b600060208284031215605257600080fd5b81516001600160a01b0381168114606857600080fd5b9392505050565b608051613a1061008a600039600061022c0152613a106000f3fe608060405234801561001057600080fd5b506004361061004c5760003560e01c806336fbad26146100515780635880ef341461006d578063dff4b13f14610082578063f0f3f2c81461008c575b600080fd5b61005a60025481565b6040519081526020015b60405180910390f35b6100756100b7565b60405161006491906106c3565b61008a610119565b005b61009f61009a36600461070f565b61029c565b6040516001600160a01b039091168152602001610064565b6060600180548060200260200160405190810160405280929190818152602001828054801561010f57602002820191906000526020600020905b81546001600160a01b031681526001909101906020018083116100f1575b5050505050905090565b6000604051610127906106b6565b604051809103906000f080158015610143573d6000803e3d6000fd5b5060405163148aedc160e21b81523360048201529091506001600160a01b0382169063522bb704906024016020604051808303816000875af115801561018d573d6000803e3d6000fd5b505050506040513d601f19601f820116820180604052508101906101b19190610728565b600080546001600160a01b03929092166001600160a01b0319928316811782556001805480820182559083527fb10e2d527612073b26eecdfd717e6a320cf44b4afac2b0732d9fcbe2b7fa0cf601805490931617909155600280549161021683610758565b9091555050600054610257906001600160a01b037f000000000000000000000000000000000000000000000000000000000000000081169116600019610318565b6000546040516001600160a01b03909116815233907f8cb1f5e0b7508307e592a641586f535256dba226b02388100691c6133f65e22e9060200160405180910390a250565b600060025482106102ea5760405162461bcd60e51b8152602060048201526013602482015272496e646578206f7574206f6620626f756e647360681b60448201526064015b60405180910390fd5b600182815481106102fd576102fd61077f565b6000918252602090912001546001600160a01b031692915050565b8015806103925750604051636eb1769f60e11b81523060048201526001600160a01b03838116602483015284169063dd62ed3e90604401602060405180830381865afa15801561036c573d6000803e3d6000fd5b505050506040513d601f19601f820116820180604052508101906103909190610795565b155b6103fd5760405162461bcd60e51b815260206004820152603660248201527f5361666545524332303a20617070726f76652066726f6d206e6f6e2d7a65726f60448201527520746f206e6f6e2d7a65726f20616c6c6f77616e636560501b60648201526084016102e1565b604080516001600160a01b038416602482015260448082018490528251808303909101815260649091019091526020810180516001600160e01b031663095ea7b360e01b17905261044f908490610454565b505050565b60006104a9826040518060400160405280602081526020017f5361666545524332303a206c6f772d6c6576656c2063616c6c206661696c6564815250856001600160a01b03166105269092919063ffffffff16565b80519091501561044f57808060200190518101906104c791906107ae565b61044f5760405162461bcd60e51b815260206004820152602a60248201527f5361666545524332303a204552433230206f7065726174696f6e20646964206e6044820152691bdd081cdd58d8d9595960b21b60648201526084016102e1565b6060610535848460008561053d565b949350505050565b60608247101561059e5760405162461bcd60e51b815260206004820152602660248201527f416464726573733a20696e73756666696369656e742062616c616e636520666f6044820152651c8818d85b1b60d21b60648201526084016102e1565b600080866001600160a01b031685876040516105ba91906107f4565b60006040518083038185875af1925050503d80600081146105f7576040519150601f19603f3d011682016040523d82523d6000602084013e6105fc565b606091505b509150915061060d87838387610618565b979650505050505050565b60608315610687578251600003610680576001600160a01b0385163b6106805760405162461bcd60e51b815260206004820152601d60248201527f416464726573733a2063616c6c20746f206e6f6e2d636f6e747261637400000060448201526064016102e1565b5081610535565b610535838381511561069c5781518083602001fd5b8060405162461bcd60e51b81526004016102e19190610810565b6131978061084483390190565b602080825282518282018190526000918401906040840190835b818110156107045783516001600160a01b03168352602093840193909201916001016106dd565b509095945050505050565b60006020828403121561072157600080fd5b5035919050565b60006020828403121561073a57600080fd5b81516001600160a01b038116811461075157600080fd5b9392505050565b60006001820161077857634e487b7160e01b600052601160045260246000fd5b5060010190565b634e487b7160e01b600052603260045260246000fd5b6000602082840312156107a757600080fd5b5051919050565b6000602082840312156107c057600080fd5b8151801515811461075157600080fd5b60005b838110156107eb5781810151838201526020016107d3565b50506000910152565b600082516108068184602087016107d0565b9190910192915050565b602081526000825180602084015261082f8160408501602087016107d0565b601f01601f1916919091016040019291505056fe6080604052600c805462ff00ff191662010001179055348015602057600080fd5b50613167806100306000396000f3fe608060405234801561001057600080fd5b50600436106100365760003560e01c8063522bb7041461003b578063f8ccbf471461006b575b600080fd5b61004e6100493660046101a1565b61008e565b6040516001600160a01b0390911681526020015b60405180910390f35b600c5461007e9062010000900460ff1681565b6040519015158152602001610062565b60008060405161009d9061016f565b604051809103906000f0801580156100b9573d6000803e3d6000fd5b5090506000816001600160a01b031663d7b657456040518163ffffffff1660e01b8152600401602060405180830381865afa1580156100fc573d6000803e3d6000fd5b505050506040513d601f19601f8201168201806040525081019061012091906101c5565b9050600081856040516101329061017c565b6001600160a01b03928316815291166020820152604001604051809103906000f080158015610165573d6000803e3d6000fd5b5095945050505050565b61198b806101e383390190565b6115c480611b6e83390190565b6001600160a01b038116811461019e57600080fd5b50565b6000602082840312156101b357600080fd5b81356101be81610189565b9392505050565b6000602082840312156101d757600080fd5b81516101be8161018956fe6080604052600c805462ff00ff19166201000117905534801561002157600080fd5b5062aa36a619460161008257604080516020808201835260009091528151908101909152731c7d4b196cb0c7b01d743fbc6116a902379c723881525b51600d80546001600160a01b0319166001600160a01b0390921691909117905561029e565b60001946016100bf5760408051602080820183526000909152815190810190915273a0b86991c6218b36c1d19d4a2e9eb0ce3606eb48815261005d565b60881946016100fc57604080516020808201835260009091528151908101909152733c499c542cef5e3811e1192ce70d8cc03d5c3359815261005d565b61a86819460161013a57604080516020808201835260009091528151908101909152735425890298aed601595a70ab815c96711a31bc65815261005d565b62013881194601610179576040805160208082018352600090915281519081019091527341e94eb019c0762f9bfcf9fb1e58725bfb0e7582815261005d565b61005d604080516020810190915260008152600060405161019990610266565b604051809103906000f0801580156101b5573d6000803e3d6000fd5b5090506001600160a01b0381166340c10f1973f39fd6e51aad88f6f4ce6ab8827279cfffb922666101ea620f42406064610273565b6040516001600160e01b031960e085901b1681526001600160a01b0390921660048301526024820152604401600060405180830381600087803b15801561023057600080fd5b505af1158015610244573d6000803e3d6000fd5b505060408051602081019091526001600160a01b039093168352509092915050565b6109c380610fc883390190565b808202811582820484141761029857634e487b7160e01b600052601160045260246000fd5b92915050565b610d1b806102ad6000396000f3fe608060405234801561001057600080fd5b50600436106100885760003560e01c8063d7b657451161005b578063d7b6574514610176578063d8db2188146101a1578063ec4cf1ca146101a9578063f8ccbf47146101dd57600080fd5b80632380f8531461008d578063405f34cd146100da57806344007e381461010e578063d0c068a014610142575b600080fd5b60408051602080820183526000909152815190810190915273a0b86991c6218b36c1d19d4a2e9eb0ce3606eb4881525b60405190516001600160a01b031681526020015b60405180910390f35b604080516020808201835260009091528151908101909152735425890298aed601595a70ab815c96711a31bc6581526100bd565b604080516020808201835260009091528151908101909152731c7d4b196cb0c7b01d743fbc6116a902379c723881526100bd565b6040805160208082018352600090915281519081019091527341e94eb019c0762f9bfcf9fb1e58725bfb0e758281526100bd565b600d54610189906001600160a01b031681565b6040516001600160a01b0390911681526020016100d1565b6100bd610200565b604080516020808201835260009091528151908101909152733c499c542cef5e3811e1192ce70d8cc03d5c335981526100bd565b600c546101f09062010000900460ff1681565b60405190151581526020016100d1565b604080516020810190915260008152600060405161021d906102ea565b604051809103906000f080158015610239573d6000803e3d6000fd5b5090506001600160a01b0381166340c10f1973f39fd6e51aad88f6f4ce6ab8827279cfffb9226661026e620f424060646102f7565b6040516001600160e01b031960e085901b1681526001600160a01b0390921660048301526024820152604401600060405180830381600087803b1580156102b457600080fd5b505af11580156102c8573d6000803e3d6000fd5b505060408051602081019091526001600160a01b039093168352509092915050565b6109c38061032383390190565b808202811582820484141761031c57634e487b7160e01b600052601160045260246000fd5b9291505056fe608060405234801561001057600080fd5b506040518060400160405280600981526020016845524332304d6f636b60b81b815250604051806040016040528060048152602001634532304d60e01b815250816003908161005f9190610113565b50600461006c8282610113565b5050506101d1565b634e487b7160e01b600052604160045260246000fd5b600181811c9082168061009e57607f821691505b6020821081036100be57634e487b7160e01b600052602260045260246000fd5b50919050565b601f82111561010e57806000526020600020601f840160051c810160208510156100eb5750805b601f840160051c820191505b8181101561010b57600081556001016100f7565b50505b505050565b81516001600160401b0381111561012c5761012c610074565b6101408161013a845461008a565b846100c4565b6020601f821160018114610174576000831561015c5750848201515b600019600385901b1c1916600184901b17845561010b565b600084815260208120601f198516915b828110156101a45787850151825560209485019460019092019101610184565b50848210156101c25786840151600019600387901b60f8161c191681555b50505050600190811b01905550565b6107e3806101e06000396000f3fe608060405234801561001057600080fd5b50600436106100a95760003560e01c806340c10f191161007157806340c10f191461012357806370a082311461013857806395d89b41146101615780639dc29fac14610169578063a9059cbb1461017c578063dd62ed3e1461018f57600080fd5b806306fdde03146100ae578063095ea7b3146100cc57806318160ddd146100ef57806323b872dd14610101578063313ce56714610114575b600080fd5b6100b66101c8565b6040516100c3919061062c565b60405180910390f35b6100df6100da366004610696565b61025a565b60405190151581526020016100c3565b6002545b6040519081526020016100c3565b6100df61010f3660046106c0565b610274565b604051601281526020016100c3565b610136610131366004610696565b610298565b005b6100f36101463660046106fd565b6001600160a01b031660009081526020819052604090205490565b6100b66102a6565b610136610177366004610696565b6102b5565b6100df61018a366004610696565b6102bf565b6100f361019d36600461071f565b6001600160a01b03918216600090815260016020908152604080832093909416825291909152205490565b6060600380546101d790610752565b80601f016020809104026020016040519081016040528092919081815260200182805461020390610752565b80156102505780601f1061022557610100808354040283529160200191610250565b820191906000526020600020905b81548152906001019060200180831161023357829003601f168201915b5050505050905090565b6000336102688185856102cd565b60019150505b92915050565b6000336102828582856102df565b61028d858585610362565b506001949350505050565b6102a282826103c1565b5050565b6060600480546101d790610752565b6102a282826103f7565b600033610268818585610362565b6102da838383600161042d565b505050565b6001600160a01b03838116600090815260016020908152604080832093861683529290522054600019811461035c578181101561034d57604051637dc7a0d960e11b81526001600160a01b038416600482015260248101829052604481018390526064015b60405180910390fd5b61035c8484848403600061042d565b50505050565b6001600160a01b03831661038c57604051634b637e8f60e11b815260006004820152602401610344565b6001600160a01b0382166103b65760405163ec442f0560e01b815260006004820152602401610344565b6102da838383610502565b6001600160a01b0382166103eb5760405163ec442f0560e01b815260006004820152602401610344565b6102a260008383610502565b6001600160a01b03821661042157604051634b637e8f60e11b815260006004820152602401610344565b6102a282600083610502565b6001600160a01b0384166104575760405163e602df0560e01b815260006004820152602401610344565b6001600160a01b03831661048157604051634a1406b160e11b815260006004820152602401610344565b6001600160a01b038085166000908152600160209081526040808320938716835292905220829055801561035c57826001600160a01b0316846001600160a01b03167f8c5be1e5ebec7d5bd14f71427d1e84f3dd0314c0f7b2291e5b200ac8c7c3b925846040516104f491815260200190565b60405180910390a350505050565b6001600160a01b03831661052d578060026000828254610522919061078c565b9091555061059f9050565b6001600160a01b038316600090815260208190526040902054818110156105805760405163391434e360e21b81526001600160a01b03851660048201526024810182905260448101839052606401610344565b6001600160a01b03841660009081526020819052604090209082900390555b6001600160a01b0382166105bb576002805482900390556105da565b6001600160a01b03821660009081526020819052604090208054820190555b816001600160a01b0316836001600160a01b03167fddf252ad1be2c89b69c2b068fc378daa952ba7f163c4a11628f55a4df523b3ef8360405161061f91815260200190565b60405180910390a3505050565b602081526000825180602084015260005b8181101561065a576020818601810151604086840101520161063d565b506000604082850101526040601f19601f83011684010191505092915050565b80356001600160a01b038116811461069157600080fd5b919050565b600080604083850312156106a957600080fd5b6106b28361067a565b946020939093013593505050565b6000806000606084860312156106d557600080fd5b6106de8461067a565b92506106ec6020850161067a565b929592945050506040919091013590565b60006020828403121561070f57600080fd5b6107188261067a565b9392505050565b6000806040838503121561073257600080fd5b61073b8361067a565b91506107496020840161067a565b90509250929050565b600181811c9082168061076657607f821691505b60208210810361078657634e487b7160e01b600052602260045260246000fd5b50919050565b8082018082111561026e57634e487b7160e01b600052601160045260246000fdfea2646970667358221220f0c6ddc8abcfe073b947be685b0274d81109b161be656401ba311f600af0855264736f6c634300081a0033a2646970667358221220b24cab76d288d8d1f9c3839075a31b333df69efe280871ab823cb38ef1e0d37664736f6c634300081a0033608060405234801561001057600080fd5b506040518060400160405280600981526020016845524332304d6f636b60b81b815250604051806040016040528060048152602001634532304d60e01b815250816003908161005f9190610113565b50600461006c8282610113565b5050506101d1565b634e487b7160e01b600052604160045260246000fd5b600181811c9082168061009e57607f821691505b6020821081036100be57634e487b7160e01b600052602260045260246000fd5b50919050565b601f82111561010e57806000526020600020601f840160051c810160208510156100eb5750805b601f840160051c820191505b8181101561010b57600081556001016100f7565b50505b505050565b81516001600160401b0381111561012c5761012c610074565b6101408161013a845461008a565b846100c4565b6020601f821160018114610174576000831561015c5750848201515b600019600385901b1c1916600184901b17845561010b565b600084815260208120601f198516915b828110156101a45787850151825560209485019460019092019101610184565b50848210156101c25786840151600019600387901b60f8161c191681555b50505050600190811b01905550565b6107e3806101e06000396000f3fe608060405234801561001057600080fd5b50600436106100a95760003560e01c806340c10f191161007157806340c10f191461012357806370a082311461013857806395d89b41146101615780639dc29fac14610169578063a9059cbb1461017c578063dd62ed3e1461018f57600080fd5b806306fdde03146100ae578063095ea7b3146100cc57806318160ddd146100ef57806323b872dd14610101578063313ce56714610114575b600080fd5b6100b66101c8565b6040516100c3919061062c565b60405180910390f35b6100df6100da366004610696565b61025a565b60405190151581526020016100c3565b6002545b6040519081526020016100c3565b6100df61010f3660046106c0565b610274565b604051601281526020016100c3565b610136610131366004610696565b610298565b005b6100f36101463660046106fd565b6001600160a01b031660009081526020819052604090205490565b6100b66102a6565b610136610177366004610696565b6102b5565b6100df61018a366004610696565b6102bf565b6100f361019d36600461071f565b6001600160a01b03918216600090815260016020908152604080832093909416825291909152205490565b6060600380546101d790610752565b80601f016020809104026020016040519081016040528092919081815260200182805461020390610752565b80156102505780601f1061022557610100808354040283529160200191610250565b820191906000526020600020905b81548152906001019060200180831161023357829003601f168201915b5050505050905090565b6000336102688185856102cd565b60019150505b92915050565b6000336102828582856102df565b61028d858585610362565b506001949350505050565b6102a282826103c1565b5050565b6060600480546101d790610752565b6102a282826103f7565b600033610268818585610362565b6102da838383600161042d565b505050565b6001600160a01b03838116600090815260016020908152604080832093861683529290522054600019811461035c578181101561034d57604051637dc7a0d960e11b81526001600160a01b038416600482015260248101829052604481018390526064015b60405180910390fd5b61035c8484848403600061042d565b50505050565b6001600160a01b03831661038c57604051634b637e8f60e11b815260006004820152602401610344565b6001600160a01b0382166103b65760405163ec442f0560e01b815260006004820152602401610344565b6102da838383610502565b6001600160a01b0382166103eb5760405163ec442f0560e01b815260006004820152602401610344565b6102a260008383610502565b6001600160a01b03821661042157604051634b637e8f60e11b815260006004820152602401610344565b6102a282600083610502565b6001600160a01b0384166104575760405163e602df0560e01b815260006004820152602401610344565b6001600160a01b03831661048157604051634a1406b160e11b815260006004820152602401610344565b6001600160a01b038085166000908152600160209081526040808320938716835292905220829055801561035c57826001600160a01b0316846001600160a01b03167f8c5be1e5ebec7d5bd14f71427d1e84f3dd0314c0f7b2291e5b200ac8c7c3b925846040516104f491815260200190565b60405180910390a350505050565b6001600160a01b03831661052d578060026000828254610522919061078c565b9091555061059f9050565b6001600160a01b038316600090815260208190526040902054818110156105805760405163391434e360e21b81526001600160a01b03851660048201526024810182905260448101839052606401610344565b6001600160a01b03841660009081526020819052604090209082900390555b6001600160a01b0382166105bb576002805482900390556105da565b6001600160a01b03821660009081526020819052604090208054820190555b816001600160a01b0316836001600160a01b03167fddf252ad1be2c89b69c2b068fc378daa952ba7f163c4a11628f55a4df523b3ef8360405161061f91815260200190565b60405180910390a3505050565b602081526000825180602084015260005b8181101561065a576020818601810151604086840101520161063d565b506000604082850101526040601f19601f83011684010191505092915050565b80356001600160a01b038116811461069157600080fd5b919050565b600080604083850312156106a957600080fd5b6106b28361067a565b946020939093013593505050565b6000806000606084860312156106d557600080fd5b6106de8461067a565b92506106ec6020850161067a565b929592945050506040919091013590565b60006020828403121561070f57600080fd5b6107188261067a565b9392505050565b6000806040838503121561073257600080fd5b61073b8361067a565b91506107496020840161067a565b90509250929050565b600181811c9082168061076657607f821691505b60208210810361078657634e487b7160e01b600052602260045260246000fd5b50919050565b8082018082111561026e57634e487b7160e01b600052601160045260246000fdfea2646970667358221220f0c6ddc8abcfe073b947be685b0274d81109b161be656401ba311f600af0855264736f6c634300081a003360a06040526005805461ffff60a01b1916905534801561001e57600080fd5b506040516115c43803806115c483398101604081905261003d916100b5565b6001600160a01b0380821660805282166100695760405162b30c8d60e31b815260040160405180910390fd5b50600080546001600160a01b039092166001600160a01b03199283168117909155600580549092161790556100e8565b80516001600160a01b03811681146100b057600080fd5b919050565b600080604083850312156100c857600080fd5b6100d183610099565b91506100df60208401610099565b90509250929050565b60805161148961013b600039600081816102e6015281816103c9015281816104c0015281816105c701528181610611015281816107bd0152818161089f015281816109b101526109d801526114896000f3fe6080604052600436106101215760003560e01c806381158fe3116100a0578063c83bb1a611610064578063c83bb1a614610362578063ca1d209d14610377578063d7b4750c14610397578063dba6335f146103b7578063dc0d3dff146103eb57600080fd5b806381158fe3146102c2578063893d20e8146102d75780639a33e3001461030a578063ab7cc84d1461032c578063ad7a672f1461034c57600080fd5b80633ccfd60b116100e75780633ccfd60b1461021e5780633e413bee1461023557806348f770ba146102555780635c6b932b1461027557806377b53ece146102a257600080fd5b806213c58a146101845780622772c2146101ad57806306434322146101c257806312b58349146101f457806329f5633f1461020957600080fd5b3661017f5760405162461bcd60e51b815260206004820152602360248201527f5468697320636f6e747261637420646f6573206e6f74206163636570742065746044820152623432b960e91b60648201526084015b60405180910390fd5b600080fd5b34801561019057600080fd5b5061019a60025481565b6040519081526020015b60405180910390f35b3480156101b957600080fd5b5061019a61040b565b3480156101ce57600080fd5b506005546001600160a01b03165b6040516001600160a01b0390911681526020016101a4565b34801561020057600080fd5b5060035461019a565b34801561021557600080fd5b5061019a61047e565b34801561022a57600080fd5b506102336104b5565b005b34801561024157600080fd5b506000546101dc906001600160a01b031681565b34801561026157600080fd5b506102336102703660046110e8565b61066c565b34801561028157600080fd5b5061019a610290366004611101565b60066020526000908152604090205481565b3480156102ae57600080fd5b506005546101dc906001600160a01b031681565b3480156102ce57600080fd5b5061019a6106f3565b3480156102e357600080fd5b507f00000000000000000000000000000000000000000000000000000000000000006101dc565b34801561031657600080fd5b5061031f610724565b6040516101a49190611155565b34801561033857600080fd5b5061023361034736600461119e565b6107b2565b34801561035857600080fd5b5061019a60035481565b34801561036e57600080fd5b50610233610894565b34801561038357600080fd5b506102336103923660046110e8565b610a31565b3480156103a357600080fd5b506101dc6103b23660046110e8565b610c34565b3480156103c357600080fd5b506101dc7f000000000000000000000000000000000000000000000000000000000000000081565b3480156103f757600080fd5b506101dc6104063660046110e8565b610c64565b600080546040516370a0823160e01b81523060048201526001600160a01b03909116906370a08231906024015b602060405180830381865afa158015610455573d6000803e3d6000fd5b505050506040513d601f19601f820116820180604052508101906104799190611259565b905090565b60008054604051636eb1769f60e11b81523360048201523060248201526001600160a01b039091169063dd62ed3e90604401610438565b336001600160a01b037f000000000000000000000000000000000000000000000000000000000000000016146104fe576040516330cd747160e01b815260040160405180910390fd5b60025460035410156105455760405162461bcd60e51b815260206004820152601060248201526f11dbd85b081b9bdd081c995858da195960821b6044820152606401610176565b600080546040516370a0823160e01b81523060048201526001600160a01b03909116906370a0823190602401602060405180830381865afa15801561058e573d6000803e3d6000fd5b505050506040513d601f19601f820116820180604052508101906105b29190611259565b6000549091506105ec906001600160a01b03167f000000000000000000000000000000000000000000000000000000000000000083610c8e565b60006003556005805460ff60a81b1916600160a81b1790556040516001600160a01b037f000000000000000000000000000000000000000000000000000000000000000016907feaff4b37086828766ad3268786972c0cd24259d4c87a80f9d3963a3c3d999b0d906106619084815260200190565b60405180910390a250565b600554600160a81b900460ff16156106c65760405162461bcd60e51b815260206004820152601b60248201527f50726f6a65637420697320616c726561647920636f6d706c65746500000000006044820152606401610176565b60006106d5620f424083611288565b6000549091506106ef906001600160a01b03163083610cf6565b5050565b600080546040516370a0823160e01b81523360048201526001600160a01b03909116906370a0823190602401610438565b60018054610731906112a5565b80601f016020809104026020016040519081016040528092919081815260200182805461075d906112a5565b80156107aa5780601f1061077f576101008083540402835291602001916107aa565b820191906000526020600020905b81548152906001019060200180831161078d57829003601f168201915b505050505081565b336001600160a01b037f000000000000000000000000000000000000000000000000000000000000000016146107fb576040516330cd747160e01b815260040160405180910390fd5b600554600160a01b900460ff16156108605760405162461bcd60e51b815260206004820152602260248201527f4e616d6520616e6420676f616c2068617320616c7265616479206265656e2073604482015261195d60f21b6064820152608401610176565b600161086c838261132d565b5061087a620f424082611288565b60025550506005805460ff60a01b1916600160a01b179055565b336001600160a01b037f000000000000000000000000000000000000000000000000000000000000000016146108dd576040516330cd747160e01b815260040160405180910390fd5b60016003541061092f5760405162461bcd60e51b815260206004820152601960248201527f546f74616c2062616c616e6365206973206e6f74207a65726f000000000000006044820152606401610176565b600080546040516370a0823160e01b81523060048201526001600160a01b03909116906370a0823190602401602060405180830381865afa158015610978573d6000803e3d6000fd5b505050506040513d601f19601f8201168201806040525081019061099c9190611259565b6000549091506109d6906001600160a01b03167f000000000000000000000000000000000000000000000000000000000000000083610c8e565b7f00000000000000000000000000000000000000000000000000000000000000006001600160a01b03167feaff4b37086828766ad3268786972c0cd24259d4c87a80f9d3963a3c3d999b0d8260405161066191815260200190565b600554600160a81b900460ff1615610a8b5760405162461bcd60e51b815260206004820152601b60248201527f50726f6a65637420697320616c726561647920636f6d706c65746500000000006044820152606401610176565b6000610a9a620f424083611288565b9050610aa581610e0b565b610ac257604051630ed91f1d60e41b815260040160405180910390fd5b6000546040516323b872dd60e01b8152336004820152306024820152604481018390526001600160a01b03909116906323b872dd906064016020604051808303816000875af1158015610b19573d6000803e3d6000fd5b505050506040513d601f19601f82011682018060405250810190610b3d91906113ec565b610b7b5760405162461bcd60e51b815260206004820152600f60248201526e151c985b9cd9995c8819985a5b1959608a1b6044820152606401610176565b3360009081526006602052604081208054839290610b9a90849061140e565b925050819055508060036000828254610bb3919061140e565b9091555050600480546001810182556000919091527f8a35acfbc15ff81a39ae7d344fd709f28e8600b4aa8c65c6b64bfe7fe36bd19b0180546001600160a01b031916339081179091556040518281527f54a5b8782470a0d2c022b3b9e5e729503ac5dbdfe053afeb4559f9297f7565a69060200160405180910390a25050565b600060048281548110610c4957610c49611421565b6000918252602090912001546001600160a01b031692915050565b60048181548110610c7457600080fd5b6000918252602090912001546001600160a01b0316905081565b6040516001600160a01b038316602482015260448101829052610cf190849063a9059cbb60e01b906064015b60408051601f198184030181529190526020810180516001600160e01b03166001600160e01b031990931692909217909152610e86565b505050565b801580610d705750604051636eb1769f60e11b81523060048201526001600160a01b03838116602483015284169063dd62ed3e90604401602060405180830381865afa158015610d4a573d6000803e3d6000fd5b505050506040513d601f19601f82011682018060405250810190610d6e9190611259565b155b610ddb5760405162461bcd60e51b815260206004820152603660248201527f5361666545524332303a20617070726f76652066726f6d206e6f6e2d7a65726f60448201527520746f206e6f6e2d7a65726f20616c6c6f77616e636560501b6064820152608401610176565b6040516001600160a01b038316602482015260448101829052610cf190849063095ea7b360e01b90606401610cba565b60008054604051636eb1769f60e11b815233600482015230602482015283916001600160a01b03169063dd62ed3e90604401602060405180830381865afa158015610e5a573d6000803e3d6000fd5b505050506040513d601f19601f82011682018060405250810190610e7e9190611259565b101592915050565b6000610edb826040518060400160405280602081526020017f5361666545524332303a206c6f772d6c6576656c2063616c6c206661696c6564815250856001600160a01b0316610f589092919063ffffffff16565b805190915015610cf15780806020019051810190610ef991906113ec565b610cf15760405162461bcd60e51b815260206004820152602a60248201527f5361666545524332303a204552433230206f7065726174696f6e20646964206e6044820152691bdd081cdd58d8d9595960b21b6064820152608401610176565b6060610f678484600085610f6f565b949350505050565b606082471015610fd05760405162461bcd60e51b815260206004820152602660248201527f416464726573733a20696e73756666696369656e742062616c616e636520666f6044820152651c8818d85b1b60d21b6064820152608401610176565b600080866001600160a01b03168587604051610fec9190611437565b60006040518083038185875af1925050503d8060008114611029576040519150601f19603f3d011682016040523d82523d6000602084013e61102e565b606091505b509150915061103f8783838761104a565b979650505050505050565b606083156110b95782516000036110b2576001600160a01b0385163b6110b25760405162461bcd60e51b815260206004820152601d60248201527f416464726573733a2063616c6c20746f206e6f6e2d636f6e74726163740000006044820152606401610176565b5081610f67565b610f6783838151156110ce5781518083602001fd5b8060405162461bcd60e51b81526004016101769190611155565b6000602082840312156110fa57600080fd5b5035919050565b60006020828403121561111357600080fd5b81356001600160a01b038116811461112a57600080fd5b9392505050565b60005b8381101561114c578181015183820152602001611134565b50506000910152565b6020815260008251806020840152611174816040850160208701611131565b601f01601f19169190910160400192915050565b634e487b7160e01b600052604160045260246000fd5b600080604083850312156111b157600080fd5b823567ffffffffffffffff8111156111c857600080fd5b8301601f810185136111d957600080fd5b803567ffffffffffffffff8111156111f3576111f3611188565b604051601f8201601f19908116603f0116810167ffffffffffffffff8111828210171561122257611222611188565b60405281815282820160200187101561123a57600080fd5b8160208401602083013760006020928201830152969401359450505050565b60006020828403121561126b57600080fd5b5051919050565b634e487b7160e01b600052601160045260246000fd5b808202811582820484141761129f5761129f611272565b92915050565b600181811c908216806112b957607f821691505b6020821081036112d957634e487b7160e01b600052602260045260246000fd5b50919050565b601f821115610cf157806000526020600020601f840160051c810160208510156113065750805b601f840160051c820191505b818110156113265760008155600101611312565b5050505050565b815167ffffffffffffffff81111561134757611347611188565b61135b8161135584546112a5565b846112df565b6020601f82116001811461138f57600083156113775750848201515b600019600385901b1c1916600184901b178455611326565b600084815260208120601f198516915b828110156113bf578785015182556020948501946001909201910161139f565b50848210156113dd5786840151600019600387901b60f8161c191681555b50505050600190811b01905550565b6000602082840312156113fe57600080fd5b8151801515811461112a57600080fd5b8082018082111561129f5761129f611272565b634e487b7160e01b600052603260045260246000fd5b60008251611449818460208701611131565b919091019291505056fea2646970667358221220dc65c4761b69c961c9c794590a1133a2cdb5f29fb1c4914a2f9ecf66687470aa64736f6c634300081a0033a2646970667358221220f9529513ee159c08db7a1748d0ecece0ce6f63ea7360b40b47d5934167c8645864736f6c634300081a0033a264697066735822122064fd6b03cdc5cf17b74a5f0bd81761de3f4d9c46136f550238e89ed9e2dae78a64736f6c634300081a0033","linkReferences":{}},"methodIdentifiers":{"createNewProject()":"dff4b13f","getProject(uint256)":"f0f3f2c8","getProjectList()":"5880ef34","projectCount()":"36fbad26"},"id":51}