{"abi":[{"type":"constructor","inputs":[{"name":"_usdcTokenAddress","type":"address","internalType":"address"}],"stateMutability":"nonpayable"},{"type":"function","name":"createNewProject","inputs":[],"outputs":[],"stateMutability":"nonpayable"},{"type":"function","name":"getProject","inputs":[{"name":"_index","type":"uint256","internalType":"uint256"}],"outputs":[{"name":"","type":"address","internalType":"contract GoFundMe"}],"stateMutability":"view"},{"type":"function","name":"getProjectList","inputs":[],"outputs":[{"name":"","type":"address[]","internalType":"contract GoFundMe[]"}],"stateMutability":"view"},{"type":"function","name":"getUsdcAddress","inputs":[],"outputs":[{"name":"","type":"address","internalType":"address"}],"stateMutability":"view"},{"type":"function","name":"projectCount","inputs":[],"outputs":[{"name":"","type":"uint256","internalType":"uint256"}],"stateMutability":"view"},{"type":"event","name":"ProjectCreated","inputs":[{"name":"_owner","type":"address","indexed":true,"internalType":"address"},{"name":"_project","type":"address","indexed":false,"internalType":"contract GoFundMe"}],"anonymous":false}],"bytecode":{"object":"0x60a06040526000600255348015601457600080fd5b50604051611a0a380380611a0a8339810160408190526031916041565b6001600160a01b0316608052606f565b600060208284031215605257600080fd5b81516001600160a01b0381168114606857600080fd5b9392505050565b60805161197a61009060003960008181608f0152610148015261197a6000f3fe608060405234801561001057600080fd5b50600436106100575760003560e01c806336fbad261461005c5780635880ef3414610078578063dbe0b5b21461008d578063dff4b13f146100c7578063f0f3f2c8146100d1575b600080fd5b61006560025481565b6040519081526020015b60405180910390f35b6100806100e4565b60405161006f91906102de565b7f00000000000000000000000000000000000000000000000000000000000000005b6040516001600160a01b03909116815260200161006f565b6100cf610146565b005b6100af6100df36600461032a565b610256565b6060600180548060200260200160405190810160405280929190818152602001828054801561013c57602002820191906000526020600020905b81546001600160a01b0316815260019091019060200180831161011e575b5050505050905090565b7f000000000000000000000000000000000000000000000000000000000000000033604051610174906102d1565b6001600160a01b03928316815291166020820152604001604051809103906000f0801580156101a7573d6000803e3d6000fd5b50600080546001600160a01b03929092166001600160a01b0319928316811782556001805480820182559083527fb10e2d527612073b26eecdfd717e6a320cf44b4afac2b0732d9fcbe2b7fa0cf601805490931617909155600280549161020d83610343565b90915550506000546040516001600160a01b03909116815233907f8cb1f5e0b7508307e592a641586f535256dba226b02388100691c6133f65e22e9060200160405180910390a2565b600060025482106102a35760405162461bcd60e51b8152602060048201526013602482015272496e646578206f7574206f6620626f756e647360681b604482015260640160405180910390fd5b600182815481106102b6576102b661036a565b6000918252602090912001546001600160a01b031692915050565b6115c48061038183390190565b602080825282518282018190526000918401906040840190835b8181101561031f5783516001600160a01b03168352602093840193909201916001016102f8565b509095945050505050565b60006020828403121561033c57600080fd5b5035919050565b60006001820161036357634e487b7160e01b600052601160045260246000fd5b5060010190565b634e487b7160e01b600052603260045260246000fdfe60a06040526005805461ffff60a01b1916905534801561001e57600080fd5b506040516115c43803806115c483398101604081905261003d916100b5565b6001600160a01b0380821660805282166100695760405162b30c8d60e31b815260040160405180910390fd5b50600080546001600160a01b039092166001600160a01b03199283168117909155600580549092161790556100e8565b80516001600160a01b03811681146100b057600080fd5b919050565b600080604083850312156100c857600080fd5b6100d183610099565b91506100df60208401610099565b90509250929050565b60805161148961013b600039600081816102e6015281816103c9015281816104c0015281816105c701528181610611015281816107bd0152818161089f015281816109b101526109d801526114896000f3fe6080604052600436106101215760003560e01c806381158fe3116100a0578063c83bb1a611610064578063c83bb1a614610362578063ca1d209d14610377578063d7b4750c14610397578063dba6335f146103b7578063dc0d3dff146103eb57600080fd5b806381158fe3146102c2578063893d20e8146102d75780639a33e3001461030a578063ab7cc84d1461032c578063ad7a672f1461034c57600080fd5b80633ccfd60b116100e75780633ccfd60b1461021e5780633e413bee1461023557806348f770ba146102555780635c6b932b1461027557806377b53ece146102a257600080fd5b806213c58a146101845780622772c2146101ad57806306434322146101c257806312b58349146101f457806329f5633f1461020957600080fd5b3661017f5760405162461bcd60e51b815260206004820152602360248201527f5468697320636f6e747261637420646f6573206e6f74206163636570742065746044820152623432b960e91b60648201526084015b60405180910390fd5b600080fd5b34801561019057600080fd5b5061019a60025481565b6040519081526020015b60405180910390f35b3480156101b957600080fd5b5061019a61040b565b3480156101ce57600080fd5b506005546001600160a01b03165b6040516001600160a01b0390911681526020016101a4565b34801561020057600080fd5b5060035461019a565b34801561021557600080fd5b5061019a61047e565b34801561022a57600080fd5b506102336104b5565b005b34801561024157600080fd5b506000546101dc906001600160a01b031681565b34801561026157600080fd5b506102336102703660046110e8565b61066c565b34801561028157600080fd5b5061019a610290366004611101565b60066020526000908152604090205481565b3480156102ae57600080fd5b506005546101dc906001600160a01b031681565b3480156102ce57600080fd5b5061019a6106f3565b3480156102e357600080fd5b507f00000000000000000000000000000000000000000000000000000000000000006101dc565b34801561031657600080fd5b5061031f610724565b6040516101a49190611155565b34801561033857600080fd5b5061023361034736600461119e565b6107b2565b34801561035857600080fd5b5061019a60035481565b34801561036e57600080fd5b50610233610894565b34801561038357600080fd5b506102336103923660046110e8565b610a31565b3480156103a357600080fd5b506101dc6103b23660046110e8565b610c34565b3480156103c357600080fd5b506101dc7f000000000000000000000000000000000000000000000000000000000000000081565b3480156103f757600080fd5b506101dc6104063660046110e8565b610c64565b600080546040516370a0823160e01b81523060048201526001600160a01b03909116906370a08231906024015b602060405180830381865afa158015610455573d6000803e3d6000fd5b505050506040513d601f19601f820116820180604052508101906104799190611259565b905090565b60008054604051636eb1769f60e11b81523360048201523060248201526001600160a01b039091169063dd62ed3e90604401610438565b336001600160a01b037f000000000000000000000000000000000000000000000000000000000000000016146104fe576040516330cd747160e01b815260040160405180910390fd5b60025460035410156105455760405162461bcd60e51b815260206004820152601060248201526f11dbd85b081b9bdd081c995858da195960821b6044820152606401610176565b600080546040516370a0823160e01b81523060048201526001600160a01b03909116906370a0823190602401602060405180830381865afa15801561058e573d6000803e3d6000fd5b505050506040513d601f19601f820116820180604052508101906105b29190611259565b6000549091506105ec906001600160a01b03167f000000000000000000000000000000000000000000000000000000000000000083610c8e565b60006003556005805460ff60a81b1916600160a81b1790556040516001600160a01b037f000000000000000000000000000000000000000000000000000000000000000016907feaff4b37086828766ad3268786972c0cd24259d4c87a80f9d3963a3c3d999b0d906106619084815260200190565b60405180910390a250565b600554600160a81b900460ff16156106c65760405162461bcd60e51b815260206004820152601b60248201527f50726f6a65637420697320616c726561647920636f6d706c65746500000000006044820152606401610176565b60006106d5620f424083611288565b6000549091506106ef906001600160a01b03163083610cf6565b5050565b600080546040516370a0823160e01b81523360048201526001600160a01b03909116906370a0823190602401610438565b60018054610731906112a5565b80601f016020809104026020016040519081016040528092919081815260200182805461075d906112a5565b80156107aa5780601f1061077f576101008083540402835291602001916107aa565b820191906000526020600020905b81548152906001019060200180831161078d57829003601f168201915b505050505081565b336001600160a01b037f000000000000000000000000000000000000000000000000000000000000000016146107fb576040516330cd747160e01b815260040160405180910390fd5b600554600160a01b900460ff16156108605760405162461bcd60e51b815260206004820152602260248201527f4e616d6520616e6420676f616c2068617320616c7265616479206265656e2073604482015261195d60f21b6064820152608401610176565b600161086c838261132d565b5061087a620f424082611288565b60025550506005805460ff60a01b1916600160a01b179055565b336001600160a01b037f000000000000000000000000000000000000000000000000000000000000000016146108dd576040516330cd747160e01b815260040160405180910390fd5b60016003541061092f5760405162461bcd60e51b815260206004820152601960248201527f546f74616c2062616c616e6365206973206e6f74207a65726f000000000000006044820152606401610176565b600080546040516370a0823160e01b81523060048201526001600160a01b03909116906370a0823190602401602060405180830381865afa158015610978573d6000803e3d6000fd5b505050506040513d601f19601f8201168201806040525081019061099c9190611259565b6000549091506109d6906001600160a01b03167f000000000000000000000000000000000000000000000000000000000000000083610c8e565b7f00000000000000000000000000000000000000000000000000000000000000006001600160a01b03167feaff4b37086828766ad3268786972c0cd24259d4c87a80f9d3963a3c3d999b0d8260405161066191815260200190565b600554600160a81b900460ff1615610a8b5760405162461bcd60e51b815260206004820152601b60248201527f50726f6a65637420697320616c726561647920636f6d706c65746500000000006044820152606401610176565b6000610a9a620f424083611288565b9050610aa581610e0b565b610ac257604051630ed91f1d60e41b815260040160405180910390fd5b6000546040516323b872dd60e01b8152336004820152306024820152604481018390526001600160a01b03909116906323b872dd906064016020604051808303816000875af1158015610b19573d6000803e3d6000fd5b505050506040513d601f19601f82011682018060405250810190610b3d91906113ec565b610b7b5760405162461bcd60e51b815260206004820152600f60248201526e151c985b9cd9995c8819985a5b1959608a1b6044820152606401610176565b3360009081526006602052604081208054839290610b9a90849061140e565b925050819055508060036000828254610bb3919061140e565b9091555050600480546001810182556000919091527f8a35acfbc15ff81a39ae7d344fd709f28e8600b4aa8c65c6b64bfe7fe36bd19b0180546001600160a01b031916339081179091556040518281527f54a5b8782470a0d2c022b3b9e5e729503ac5dbdfe053afeb4559f9297f7565a69060200160405180910390a25050565b600060048281548110610c4957610c49611421565b6000918252602090912001546001600160a01b031692915050565b60048181548110610c7457600080fd5b6000918252602090912001546001600160a01b0316905081565b6040516001600160a01b038316602482015260448101829052610cf190849063a9059cbb60e01b906064015b60408051601f198184030181529190526020810180516001600160e01b03166001600160e01b031990931692909217909152610e86565b505050565b801580610d705750604051636eb1769f60e11b81523060048201526001600160a01b03838116602483015284169063dd62ed3e90604401602060405180830381865afa158015610d4a573d6000803e3d6000fd5b505050506040513d601f19601f82011682018060405250810190610d6e9190611259565b155b610ddb5760405162461bcd60e51b815260206004820152603660248201527f5361666545524332303a20617070726f76652066726f6d206e6f6e2d7a65726f60448201527520746f206e6f6e2d7a65726f20616c6c6f77616e636560501b6064820152608401610176565b6040516001600160a01b038316602482015260448101829052610cf190849063095ea7b360e01b90606401610cba565b60008054604051636eb1769f60e11b815233600482015230602482015283916001600160a01b03169063dd62ed3e90604401602060405180830381865afa158015610e5a573d6000803e3d6000fd5b505050506040513d601f19601f82011682018060405250810190610e7e9190611259565b101592915050565b6000610edb826040518060400160405280602081526020017f5361666545524332303a206c6f772d6c6576656c2063616c6c206661696c6564815250856001600160a01b0316610f589092919063ffffffff16565b805190915015610cf15780806020019051810190610ef991906113ec565b610cf15760405162461bcd60e51b815260206004820152602a60248201527f5361666545524332303a204552433230206f7065726174696f6e20646964206e6044820152691bdd081cdd58d8d9595960b21b6064820152608401610176565b6060610f678484600085610f6f565b949350505050565b606082471015610fd05760405162461bcd60e51b815260206004820152602660248201527f416464726573733a20696e73756666696369656e742062616c616e636520666f6044820152651c8818d85b1b60d21b6064820152608401610176565b600080866001600160a01b03168587604051610fec9190611437565b60006040518083038185875af1925050503d8060008114611029576040519150601f19603f3d011682016040523d82523d6000602084013e61102e565b606091505b509150915061103f8783838761104a565b979650505050505050565b606083156110b95782516000036110b2576001600160a01b0385163b6110b25760405162461bcd60e51b815260206004820152601d60248201527f416464726573733a2063616c6c20746f206e6f6e2d636f6e74726163740000006044820152606401610176565b5081610f67565b610f6783838151156110ce5781518083602001fd5b8060405162461bcd60e51b81526004016101769190611155565b6000602082840312156110fa57600080fd5b5035919050565b60006020828403121561111357600080fd5b81356001600160a01b038116811461112a57600080fd5b9392505050565b60005b8381101561114c578181015183820152602001611134565b50506000910152565b6020815260008251806020840152611174816040850160208701611131565b601f01601f19169190910160400192915050565b634e487b7160e01b600052604160045260246000fd5b600080604083850312156111b157600080fd5b823567ffffffffffffffff8111156111c857600080fd5b8301601f810185136111d957600080fd5b803567ffffffffffffffff8111156111f3576111f3611188565b604051601f8201601f19908116603f0116810167ffffffffffffffff8111828210171561122257611222611188565b60405281815282820160200187101561123a57600080fd5b8160208401602083013760006020928201830152969401359450505050565b60006020828403121561126b57600080fd5b5051919050565b634e487b7160e01b600052601160045260246000fd5b808202811582820484141761129f5761129f611272565b92915050565b600181811c908216806112b957607f821691505b6020821081036112d957634e487b7160e01b600052602260045260246000fd5b50919050565b601f821115610cf157806000526020600020601f840160051c810160208510156113065750805b601f840160051c820191505b818110156113265760008155600101611312565b5050505050565b815167ffffffffffffffff81111561134757611347611188565b61135b8161135584546112a5565b846112df565b6020601f82116001811461138f57600083156113775750848201515b600019600385901b1c1916600184901b178455611326565b600084815260208120601f198516915b828110156113bf578785015182556020948501946001909201910161139f565b50848210156113dd5786840151600019600387901b60f8161c191681555b50505050600190811b01905550565b6000602082840312156113fe57600080fd5b8151801515811461112a57600080fd5b8082018082111561129f5761129f611272565b634e487b7160e01b600052603260045260246000fd5b60008251611449818460208701611131565b919091019291505056fea2646970667358221220dc65c4761b69c961c9c794590a1133a2cdb5f29fb1c4914a2f9ecf66687470aa64736f6c634300081a0033a26469706673582212207587811deaa89eea87d6c527f9c5eddef47d7fe6d475897916b3a807216ac6a664736f6c634300081a0033","linkReferences":{}},"methodIdentifiers":{"createNewProject()":"dff4b13f","getProject(uint256)":"f0f3f2c8","getProjectList()":"5880ef34","getUsdcAddress()":"dbe0b5b2","projectCount()":"36fbad26"},"id":49}