{"abi":[{"type":"function","name":"ARBITRUM","inputs":[],"outputs":[{"name":"","type":"uint64","internalType":"uint64"}],"stateMutability":"view"},{"type":"function","name":"BASE","inputs":[],"outputs":[{"name":"","type":"uint64","internalType":"uint64"}],"stateMutability":"view"},{"type":"function","name":"ETHEREUM","inputs":[],"outputs":[{"name":"","type":"uint64","internalType":"uint64"}],"stateMutability":"view"},{"type":"function","name":"FUJI","inputs":[],"outputs":[{"name":"","type":"uint64","internalType":"uint64"}],"stateMutability":"view"},{"type":"function","name":"OPTIMISM","inputs":[],"outputs":[{"name":"","type":"uint64","internalType":"uint64"}],"stateMutability":"view"},{"type":"function","name":"POLYGON_AMOY","inputs":[],"outputs":[{"name":"","type":"uint64","internalType":"uint64"}],"stateMutability":"view"}],"bytecode":{"object":"0x610111610039600b82828239805160001a607314602c57634e487b7160e01b600052600060045260246000fd5b30600052607381538281f3fe730000000000000000000000000000000000000000301460806040526004361060655760003560e01c806339e95f1b14606a5780633c130daf146095578063b01dc0d51460a3578063d554ebb71460b1578063ec342ad01460bf578063f7cdf47c1460cd575b600080fd5b607867e1f4423f1bf587cd81565b60405167ffffffffffffffff909116815260200160405180910390f35b60786748810ec3e431431f81565b607867304611b6affba76a81565b607867ccf0a31a221f3c9b81565b6078678f90b8876dee653881565b607867de41ba4fc9d91ad98156fea264697066735822122006abc41c84a1ab582cbc78b3fb29394508003b75b53dd5bfd63eac8e4bc765ba64736f6c634300081a0033","linkReferences":{}},"methodIdentifiers":{"ARBITRUM()":"b01dc0d5","BASE()":"ec342ad0","ETHEREUM()":"f7cdf47c","FUJI()":"d554ebb7","OPTIMISM()":"3c130daf","POLYGON_AMOY()":"39e95f1b"},"id":52}