{"abi":[{"type":"function","name":"ARBITRUM","inputs":[],"outputs":[{"name":"","type":"address","internalType":"address"}],"stateMutability":"view"},{"type":"function","name":"BASE","inputs":[],"outputs":[{"name":"","type":"address","internalType":"address"}],"stateMutability":"view"},{"type":"function","name":"ETHEREUM","inputs":[],"outputs":[{"name":"","type":"address","internalType":"address"}],"stateMutability":"view"},{"type":"function","name":"FUJI","inputs":[],"outputs":[{"name":"","type":"address","internalType":"address"}],"stateMutability":"view"},{"type":"function","name":"OPTIMISM","inputs":[],"outputs":[{"name":"","type":"address","internalType":"address"}],"stateMutability":"view"},{"type":"function","name":"POLYGON_AMOY","inputs":[],"outputs":[{"name":"","type":"address","internalType":"address"}],"stateMutability":"view"}],"bytecode":{"object":"0x61014a610039600b82828239805160001a607314602c57634e487b7160e01b600052600060045260246000fd5b30600052607381538281f3fe730000000000000000000000000000000000000000301460806040526004361061006c5760003560e01c806339e95f1b146100715780633c130daf146100a8578063b01dc0d5146100c3578063d554ebb7146100de578063ec342ad0146100a8578063f7cdf47c146100f9575b600080fd5b61008c730fd9e8d3af1aaee056eb9e802c3a762a667b190481565b6040516001600160a01b03909116815260200160405180910390f35b61008c73e4ab69c077896252fafbd49efd26b5d171a3241081565b61008c73b1d4538b4571d411f07960ef2838ce337fe1e80e81565b61008c730b9d5d9136855f6fec3c0993fee6e9ce8a29784681565b61008c73779877a7b0d9e8603169ddbd7836e478b46247898156fea26469706673582212208aea376b4f269f7e1fadb9a2bbd8ff4dd53bb9b6ea9ff7a7acafa6360386e66a64736f6c634300081a0033","linkReferences":{}},"methodIdentifiers":{"ARBITRUM()":"b01dc0d5","BASE()":"ec342ad0","ETHEREUM()":"f7cdf47c","FUJI()":"d554ebb7","OPTIMISM()":"3c130daf","POLYGON_AMOY()":"39e95f1b"},"id":52}