{"abi":[{"type":"constructor","inputs":[{"name":"_router","type":"address","internalType":"address"},{"name":"_usdcToken","type":"address","internalType":"address"}],"stateMutability":"nonpayable"},{"type":"function","name":"acceptOwnership","inputs":[],"outputs":[],"stateMutability":"nonpayable"},{"type":"function","name":"ccipReceive","inputs":[{"name":"any2EvmMessage","type":"tuple","internalType":"struct Client.Any2EVMMessage","components":[{"name":"messageId","type":"bytes32","internalType":"bytes32"},{"name":"sourceChainSelector","type":"uint64","internalType":"uint64"},{"name":"sender","type":"bytes","internalType":"bytes"},{"name":"data","type":"bytes","internalType":"bytes"},{"name":"destTokenAmounts","type":"tuple[]","internalType":"struct Client.EVMTokenAmount[]","components":[{"name":"token","type":"address","internalType":"address"},{"name":"amount","type":"uint256","internalType":"uint256"}]}]}],"outputs":[],"stateMutability":"nonpayable"},{"type":"function","name":"deleteSenderForSourceChain","inputs":[{"name":"_sourceChainSelector","type":"uint64","internalType":"uint64"}],"outputs":[],"stateMutability":"nonpayable"},{"type":"function","name":"getControllerAddress","inputs":[],"outputs":[{"name":"","type":"address","internalType":"contract ControllerGoFundMe"}],"stateMutability":"view"},{"type":"function","name":"getFailedMessages","inputs":[{"name":"offset","type":"uint256","internalType":"uint256"},{"name":"limit","type":"uint256","internalType":"uint256"}],"outputs":[{"name":"","type":"tuple[]","internalType":"struct Receiver.FailedMessage[]","components":[{"name":"messageId","type":"bytes32","internalType":"bytes32"},{"name":"errorCode","type":"uint8","internalType":"enum Receiver.ErrorCode"}]}],"stateMutability":"view"},{"type":"function","name":"getProjectTest","inputs":[{"name":"_index","type":"uint256","internalType":"uint256"}],"outputs":[{"name":"","type":"address","internalType":"contract GoFundMe"}],"stateMutability":"view"},{"type":"function","name":"getRouter","inputs":[],"outputs":[{"name":"","type":"address","internalType":"address"}],"stateMutability":"view"},{"type":"function","name":"owner","inputs":[],"outputs":[{"name":"","type":"address","internalType":"address"}],"stateMutability":"view"},{"type":"function","name":"processMessage","inputs":[{"name":"any2EvmMessage","type":"tuple","internalType":"struct Client.Any2EVMMessage","components":[{"name":"messageId","type":"bytes32","internalType":"bytes32"},{"name":"sourceChainSelector","type":"uint64","internalType":"uint64"},{"name":"sender","type":"bytes","internalType":"bytes"},{"name":"data","type":"bytes","internalType":"bytes"},{"name":"destTokenAmounts","type":"tuple[]","internalType":"struct Client.EVMTokenAmount[]","components":[{"name":"token","type":"address","internalType":"address"},{"name":"amount","type":"uint256","internalType":"uint256"}]}]}],"outputs":[],"stateMutability":"nonpayable"},{"type":"function","name":"retryFailedMessage","inputs":[{"name":"messageId","type":"bytes32","internalType":"bytes32"},{"name":"beneficiary","type":"address","internalType":"address"}],"outputs":[],"stateMutability":"nonpayable"},{"type":"function","name":"s_messageContents","inputs":[{"name":"","type":"bytes32","internalType":"bytes32"}],"outputs":[{"name":"messageId","type":"bytes32","internalType":"bytes32"},{"name":"sourceChainSelector","type":"uint64","internalType":"uint64"},{"name":"sender","type":"bytes","internalType":"bytes"},{"name":"data","type":"bytes","internalType":"bytes"}],"stateMutability":"view"},{"type":"function","name":"s_senders","inputs":[{"name":"","type":"uint64","internalType":"uint64"}],"outputs":[{"name":"","type":"address","internalType":"address"}],"stateMutability":"view"},{"type":"function","name":"setSenderForSourceChain","inputs":[{"name":"_sourceChainSelector","type":"uint64","internalType":"uint64"},{"name":"_sender","type":"address","internalType":"address"}],"outputs":[],"stateMutability":"nonpayable"},{"type":"function","name":"supportsInterface","inputs":[{"name":"interfaceId","type":"bytes4","internalType":"bytes4"}],"outputs":[{"name":"","type":"bool","internalType":"bool"}],"stateMutability":"pure"},{"type":"function","name":"transferOwnership","inputs":[{"name":"to","type":"address","internalType":"address"}],"outputs":[],"stateMutability":"nonpayable"},{"type":"function","name":"transferTokenToProject","inputs":[{"name":"project","type":"address","internalType":"address"},{"name":"_amount","type":"uint256","internalType":"uint256"}],"outputs":[],"stateMutability":"nonpayable"},{"type":"event","name":"MessageFailed","inputs":[{"name":"messageId","type":"bytes32","indexed":true,"internalType":"bytes32"},{"name":"reason","type":"bytes","indexed":false,"internalType":"bytes"}],"anonymous":false},{"type":"event","name":"MessageReceived","inputs":[{"name":"messageId","type":"bytes32","indexed":true,"internalType":"bytes32"},{"name":"sourceChainSelector","type":"uint64","indexed":true,"internalType":"uint64"},{"name":"sender","type":"address","indexed":true,"internalType":"address"},{"name":"data","type":"bytes","indexed":false,"internalType":"bytes"},{"name":"token","type":"address","indexed":false,"internalType":"address"},{"name":"tokenAmount","type":"uint256","indexed":false,"internalType":"uint256"}],"anonymous":false},{"type":"event","name":"MessageRecovered","inputs":[{"name":"messageId","type":"bytes32","indexed":true,"internalType":"bytes32"}],"anonymous":false},{"type":"event","name":"OwnershipTransferRequested","inputs":[{"name":"from","type":"address","indexed":true,"internalType":"address"},{"name":"to","type":"address","indexed":true,"internalType":"address"}],"anonymous":false},{"type":"event","name":"OwnershipTransferred","inputs":[{"name":"from","type":"address","indexed":true,"internalType":"address"},{"name":"to","type":"address","indexed":true,"internalType":"address"}],"anonymous":false},{"type":"error","name":"CallToProjectFailed","inputs":[]},{"type":"error","name":"FailedToFundProject","inputs":[]},{"type":"error","name":"InvalidController","inputs":[]},{"type":"error","name":"InvalidRouter","inputs":[{"name":"router","type":"address","internalType":"address"}]},{"type":"error","name":"InvalidSenderAddress","inputs":[]},{"type":"error","name":"InvalidSourceChain","inputs":[]},{"type":"error","name":"InvalidUsdcToken","inputs":[]},{"type":"error","name":"MessageNotFailed","inputs":[{"name":"messageId","type":"bytes32","internalType":"bytes32"}]},{"type":"error","name":"NoProjectAddressFound","inputs":[]},{"type":"error","name":"NoReturnDataExpected","inputs":[]},{"type":"error","name":"NoSenderOnSourceChain","inputs":[{"name":"sourceChainSelector","type":"uint64","internalType":"uint64"}]},{"type":"error","name":"OnlySelf","inputs":[]},{"type":"error","name":"WrongReceivedToken","inputs":[{"name":"usdcToken","type":"address","internalType":"address"},{"name":"receivedToken","type":"address","internalType":"address"}]},{"type":"error","name":"WrongSenderForSourceChain","inputs":[{"name":"sourceChainSelector","type":"uint64","internalType":"uint64"}]}],"bytecode":{"object":"0x60e060405234801561001057600080fd5b50604051613e56380380613e5683398101604081905261002f9161023d565b33806000846001600160a01b038116610063576040516335fdcccd60e21b8152600060048201526024015b60405180910390fd5b6001600160a01b0390811660805282166100bf5760405162461bcd60e51b815260206004820152601860248201527f43616e6e6f7420736574206f776e657220746f207a65726f0000000000000000604482015260640161005a565b600080546001600160a01b0319166001600160a01b03848116919091179091558116156100ef576100ef8161016b565b5050506001600160a01b0381166101195760405163b83a5cf760e01b815260040160405180910390fd5b8060405161012690610214565b6001600160a01b039091168152602001604051809103906000f080158015610152573d6000803e3d6000fd5b506001600160a01b0390811660c0521660a05250610270565b336001600160a01b038216036101c35760405162461bcd60e51b815260206004820152601760248201527f43616e6e6f74207472616e7366657220746f2073656c66000000000000000000604482015260640161005a565b600180546001600160a01b0319166001600160a01b0383811691821790925560008054604051929316917fed8889f560326eb138920d842192f0eb3dd22b4f139c87a2c57538e05bae12789190a350565b611a0a8061244c83390190565b80516001600160a01b038116811461023857600080fd5b919050565b6000806040838503121561025057600080fd5b61025983610221565b915061026760208401610221565b90509250929050565b60805160a05160c0516121836102c96000396000818161020a015281816105b90152610ed1015260008181610b4901528181610dc701528181610e220152610f670152600081816101e401526106e001526121836000f3fe608060405234801561001057600080fd5b50600436106101005760003560e01c8063b0f479a111610097578063d1e889ae11610066578063d1e889ae14610264578063ded394a314610277578063e62aa19f1461028a578063f2fde38b1461029d57600080fd5b8063b0f479a1146101e2578063c57380a214610208578063cf6730f81461022e578063d0d1fc3d1461024157600080fd5b806379ba5097116100d357806379ba50971461019657806385572ffb1461019e5780638d9d89fe146101b15780638da5cb5b146101d157600080fd5b806301ffc9a714610105578063369f7f661461012d5780633b6efe14146101425780636502347214610183575b600080fd5b610118610113366004611621565b6102b0565b60405190151581526020015b60405180910390f35b61014061013b366004611660565b6102e7565b005b61016b6101503660046116b5565b6003602052600090815260409020546001600160a01b031681565b6040516001600160a01b039091168152602001610124565b61016b6101913660046116d2565b610596565b61014061062b565b6101406101ac3660046116eb565b6106d5565b6101c46101bf366004611725565b6108a3565b604051610124919061175d565b6000546001600160a01b031661016b565b7f000000000000000000000000000000000000000000000000000000000000000061016b565b7f000000000000000000000000000000000000000000000000000000000000000061016b565b61014061023c3660046116eb565b6109c8565b61025461024f3660046116d2565b6109f9565b604051610124949392919061181e565b610140610272366004611858565b610b3c565b610140610285366004611884565b610b74565b6101406102983660046116b5565b610c08565b6101406102ab3660046118b2565b610cad565b60006001600160e01b031982166385572ffb60e01b14806102e157506001600160e01b031982166301ffc9a760e01b145b92915050565b6102ef610cbe565b60016102fc600584610d13565b14610322576040516305b73c1360e51b8152600481018390526024015b60405180910390fd5b6103328260005b60059190610d1f565b506000828152600460209081526040808320815160a0810183528154815260018201546001600160401b0316938101939093526002810180549192840191610379906118cf565b80601f01602080910402602001604051908101604052809291908181526020018280546103a5906118cf565b80156103f25780601f106103c7576101008083540402835291602001916103f2565b820191906000526020600020905b8154815290600101906020018083116103d557829003601f168201915b5050505050815260200160038201805461040b906118cf565b80601f0160208091040260200160405190810160405280929190818152602001828054610437906118cf565b80156104845780601f1061045957610100808354040283529160200191610484565b820191906000526020600020905b81548152906001019060200180831161046757829003601f168201915b5050505050815260200160048201805480602002602001604051908101604052809291908181526020016000905b828210156104fa576000848152602090819020604080518082019091526002850290910180546001600160a01b031682526001908101548284015290835290920191016104b2565b5050505081525050905061056682826080015160008151811061051f5761051f611909565b602002602001015160200151836080015160008151811061054257610542611909565b6020026020010151600001516001600160a01b0316610d349092919063ffffffff16565b60405183907fef3bf8c64bc480286c4f3503b870ceb23e648d2d902e31fb7bb46680da6de8ad90600090a2505050565b604051631e1e7e5960e31b81526004810182905260009081906001600160a01b037f0000000000000000000000000000000000000000000000000000000000000000169063f0f3f2c890602401602060405180830381865afa158015610600573d6000803e3d6000fd5b505050506040513d601f19601f82011682018060405250810190610624919061191f565b9392505050565b6001546001600160a01b0316331461067e5760405162461bcd60e51b815260206004820152601660248201527526bab9ba10313290383937b837b9b2b21037bbb732b960511b6044820152606401610319565b60008054336001600160a01b0319808316821784556001805490911690556040516001600160a01b0390921692909183917f8be0079c531659141344cd1fd0a4f28419497f9722a3daafe3b4186f6b6457e091a350565b336001600160a01b037f00000000000000000000000000000000000000000000000000000000000000001614610720576040516335fdcccd60e21b8152336004820152602401610319565b6003600061073460408401602085016116b5565b6001600160401b0316815260208101919091526040908101600020546001600160a01b0316906107669083018361193c565b81019061077391906118b2565b6001600160a01b0316146107b65761079160408201602083016116b5565b604051631d56640b60e21b81526001600160401b039091166004820152602401610319565b6040516319ece61f60e31b8152309063cf6730f8906107d9908490600401611a43565b600060405180830381600087803b1580156107f357600080fd5b505af1925050508015610804575060015b6108a0573d808015610832576040519150601f19603f3d011682016040523d82523d6000602084013e610837565b606091505b5061084482356001610329565b508135600090815260046020526040902082906108618282611d5b565b50506040518235907f55bc02a9ef6f146737edeeb425738006f67f077e7138de3bf84a15bde1a5b56f90610896908490611e25565b60405180910390a2505b50565b606060006108b16005610d9c565b90506000816108c08587611e38565b116108cb57836108d5565b6108d58583611e4b565b90506000816001600160401b038111156108f1576108f1611b20565b60405190808252806020026020018201604052801561093657816020015b604080518082019091526000808252602082015281526020019060019003908161090f5790505b50905060005b828110156109be5760008061095c610954848b611e38565b600590610da7565b91509150604051806040016040528083815260200182600181111561098357610983611747565b600181111561099457610994611747565b8152508484815181106109a9576109a9611909565b6020908102919091010152505060010161093c565b5095945050505050565b3330146109e85760405163029a949d60e31b815260040160405180910390fd5b6108a06109f482611fee565b610dc5565b60046020526000908152604090208054600182015460028301805492936001600160401b0390921692610a2b906118cf565b80601f0160208091040260200160405190810160405280929190818152602001828054610a57906118cf565b8015610aa45780601f10610a7957610100808354040283529160200191610aa4565b820191906000526020600020905b815481529060010190602001808311610a8757829003601f168201915b505050505090806003018054610ab9906118cf565b80601f0160208091040260200160405190810160405280929190818152602001828054610ae5906118cf565b8015610b325780601f10610b0757610100808354040283529160200191610b32565b820191906000526020600020905b815481529060010190602001808311610b1557829003601f168201915b5050505050905084565b610b706001600160a01b037f0000000000000000000000000000000000000000000000000000000000000000168383610d34565b5050565b610b7c610cbe565b81806001600160401b0316600003610ba757604051639284b19760e01b815260040160405180910390fd5b6001600160a01b038216610bce57604051630658a73f60e01b815260040160405180910390fd5b506001600160401b0391909116600090815260036020526040902080546001600160a01b0319166001600160a01b03909216919091179055565b610c10610cbe565b80806001600160401b0316600003610c3b57604051639284b19760e01b815260040160405180910390fd5b6001600160401b0382166000908152600360205260409020546001600160a01b0316610c855760405163274893c960e01b81526001600160401b0383166004820152602401610319565b506001600160401b0316600090815260036020526040902080546001600160a01b0319169055565b610cb5610cbe565b6108a081611087565b6000546001600160a01b03163314610d115760405162461bcd60e51b815260206004820152601660248201527527b7363c9031b0b63630b1363290313c9037bbb732b960511b6044820152606401610319565b565b60006106248383611130565b6000610d2c8484846111a0565b949350505050565b6040516001600160a01b038316602482015260448101829052610d9790849063a9059cbb60e01b906064015b60408051601f198184030181529190526020810180516001600160e01b03166001600160e01b0319909316929092179091526111bd565b505050565b60006102e18261128f565b6000808080610db6868661129a565b909450925050505b9250929050565b7f00000000000000000000000000000000000000000000000000000000000000006001600160a01b03168160800151600081518110610e0657610e06611909565b6020026020010151600001516001600160a01b031614610e90577f00000000000000000000000000000000000000000000000000000000000000008160800151600081518110610e5857610e58611909565b60209081029190910101515160405163db8c22ef60e01b81526001600160a01b03928316600482015291166024820152604401610319565b6000808260600151806020019051810190610eab91906120a4565b604051631e1e7e5960e31b81526001600482015291935091506000906001600160a01b037f0000000000000000000000000000000000000000000000000000000000000000169063f0f3f2c890602401602060405180830381865afa158015610f18573d6000803e3d6000fd5b505050506040513d601f19601f82011682018060405250810190610f3c919061191f565b9050610f9e818560800151600081518110610f5957610f59611909565b6020026020010151602001517f00000000000000000000000000000000000000000000000000000000000000006001600160a01b03166112c59092919063ffffffff16565b610fca818560800151600081518110610fb957610fb9611909565b602002602001015160200151610b3c565b8360400151806020019051810190610fe2919061191f565b6001600160a01b031684602001516001600160401b031685600001517fefd22b16d02120210ec8687e3528d040d94b6509ca1a54ecc33b9e6790abfe248760600151886080015160008151811061103b5761103b611909565b602002602001015160000151896080015160008151811061105e5761105e611909565b602002602001015160200151604051611079939291906120c8565b60405180910390a450505050565b336001600160a01b038216036110df5760405162461bcd60e51b815260206004820152601760248201527f43616e6e6f74207472616e7366657220746f2073656c660000000000000000006044820152606401610319565b600180546001600160a01b0319166001600160a01b0383811691821790925560008054604051929316917fed8889f560326eb138920d842192f0eb3dd22b4f139c87a2c57538e05bae12789190a350565b600081815260028301602052604081205480151580611154575061115484846113da565b6106245760405162461bcd60e51b815260206004820152601e60248201527f456e756d657261626c654d61703a206e6f6e6578697374656e74206b657900006044820152606401610319565b60008281526002840160205260408120829055610d2c84846113e6565b6000611212826040518060400160405280602081526020017f5361666545524332303a206c6f772d6c6576656c2063616c6c206661696c6564815250856001600160a01b03166113f29092919063ffffffff16565b805190915015610d97578080602001905181019061123091906120f6565b610d975760405162461bcd60e51b815260206004820152602a60248201527f5361666545524332303a204552433230206f7065726174696f6e20646964206e6044820152691bdd081cdd58d8d9595960b21b6064820152608401610319565b60006102e182611401565b600080806112a8858561140b565b600081815260029690960160205260409095205494959350505050565b80158061133f5750604051636eb1769f60e11b81523060048201526001600160a01b03838116602483015284169063dd62ed3e90604401602060405180830381865afa158015611319573d6000803e3d6000fd5b505050506040513d601f19601f8201168201806040525081019061133d9190612118565b155b6113aa5760405162461bcd60e51b815260206004820152603660248201527f5361666545524332303a20617070726f76652066726f6d206e6f6e2d7a65726f60448201527520746f206e6f6e2d7a65726f20616c6c6f77616e636560501b6064820152608401610319565b6040516001600160a01b038316602482015260448101829052610d9790849063095ea7b360e01b90606401610d60565b60006106248383611417565b6000610624838361142f565b6060610d2c848460008561147e565b60006102e1825490565b60006106248383611559565b60008181526001830160205260408120541515610624565b6000818152600183016020526040812054611476575081546001818101845560008481526020808220909301849055845484825282860190935260409020919091556102e1565b5060006102e1565b6060824710156114df5760405162461bcd60e51b815260206004820152602660248201527f416464726573733a20696e73756666696369656e742062616c616e636520666f6044820152651c8818d85b1b60d21b6064820152608401610319565b600080866001600160a01b031685876040516114fb9190612131565b60006040518083038185875af1925050503d8060008114611538576040519150601f19603f3d011682016040523d82523d6000602084013e61153d565b606091505b509150915061154e87838387611583565b979650505050505050565b600082600001828154811061157057611570611909565b9060005260206000200154905092915050565b606083156115f25782516000036115eb576001600160a01b0385163b6115eb5760405162461bcd60e51b815260206004820152601d60248201527f416464726573733a2063616c6c20746f206e6f6e2d636f6e74726163740000006044820152606401610319565b5081610d2c565b610d2c83838151156116075781518083602001fd5b8060405162461bcd60e51b81526004016103199190611e25565b60006020828403121561163357600080fd5b81356001600160e01b03198116811461062457600080fd5b6001600160a01b03811681146108a057600080fd5b6000806040838503121561167357600080fd5b8235915060208301356116858161164b565b809150509250929050565b6001600160401b03811681146108a057600080fd5b80356116b081611690565b919050565b6000602082840312156116c757600080fd5b813561062481611690565b6000602082840312156116e457600080fd5b5035919050565b6000602082840312156116fd57600080fd5b81356001600160401b0381111561171357600080fd5b820160a0818503121561062457600080fd5b6000806040838503121561173857600080fd5b50508035926020909101359150565b634e487b7160e01b600052602160045260246000fd5b602080825282518282018190526000918401906040840190835b818110156117c35783518051845260200151600281106117a757634e487b7160e01b600052602160045260246000fd5b6020848101919091529390930192604090920191600101611777565b509095945050505050565b60005b838110156117e95781810151838201526020016117d1565b50506000910152565b6000815180845261180a8160208601602086016117ce565b601f01601f19169290920160200192915050565b8481526001600160401b038416602082015260806040820152600061184660808301856117f2565b828103606084015261154e81856117f2565b6000806040838503121561186b57600080fd5b82356118768161164b565b946020939093013593505050565b6000806040838503121561189757600080fd5b82356118a281611690565b915060208301356116858161164b565b6000602082840312156118c457600080fd5b81356106248161164b565b600181811c908216806118e357607f821691505b60208210810361190357634e487b7160e01b600052602260045260246000fd5b50919050565b634e487b7160e01b600052603260045260246000fd5b60006020828403121561193157600080fd5b81516106248161164b565b6000808335601e1984360301811261195357600080fd5b8301803591506001600160401b0382111561196d57600080fd5b602001915036819003821315610dbe57600080fd5b6000808335601e1984360301811261199957600080fd5b83016020810192503590506001600160401b038111156119b857600080fd5b803603821315610dbe57600080fd5b81835281816020850137506000828201602090810191909152601f909101601f19169091010190565b81835260208301925060008160005b84811015611a39578135611a128161164b565b6001600160a01b0316865260208281013590870152604095860195909101906001016119ff565b5093949350505050565b6020808252823582820152600090830135611a5d81611690565b6001600160401b038116604084015250611a7a6040840184611982565b60a06060850152611a8f60c0850182846119c7565b915050611a9f6060850185611982565b848303601f19016080860152611ab68382846119c7565b925050506080840135601e19853603018112611ad157600080fd5b84016020810190356001600160401b03811115611aed57600080fd5b8060061b3603821315611aff57600080fd5b848303601f190160a0860152611b168382846119f0565b9695505050505050565b634e487b7160e01b600052604160045260246000fd5b601f821115610d9757806000526020600020601f840160051c81016020851015611b5d5750805b601f840160051c820191505b81811015611b7d5760008155600101611b69565b5050505050565b6001600160401b03831115611b9b57611b9b611b20565b611baf83611ba983546118cf565b83611b36565b6000601f841160018114611be35760008515611bcb5750838201355b600019600387901b1c1916600186901b178355611b7d565b600083815260209020601f19861690835b82811015611c145786850135825560209485019460019092019101611bf4565b5086821015611c315760001960f88860031b161c19848701351681555b505060018560011b0183555050505050565b634e487b7160e01b600052601160045260246000fd5b8135611c648161164b565b81546001600160a01b0319166001600160a01b03919091161781556020919091013560019190910155565b68010000000000000000831115611ca857611ca8611b20565b805483825580841015611d1e576001600160ff1b0381168114611ccd57611ccd611c43565b6001600160ff1b0384168414611ce557611ce5611c43565b8160005260206000208160011b81018560011b820191505b80821015611d1b576000825560006001830155600282019150611cfd565b50505b5060008181526020812083915b85811015611d5357611d3d8383611c59565b6040929092019160029190910190600101611d2b565b505050505050565b81358155600181016020830135611d7181611690565b815467ffffffffffffffff19166001600160401b0391909116179055611d9a604083018361193c565b611da8818360028601611b84565b5050611db7606083018361193c565b611dc5818360038601611b84565b50506000806080840135601e19853603018112611de0578283fd5b8401803591506001600160401b03821115611df9578283fd5b6020019150600681901b3603821315611e1157600080fd5b611e1f818360048601611c8f565b50505050565b60208152600061062460208301846117f2565b808201808211156102e1576102e1611c43565b818103818111156102e1576102e1611c43565b604080519081016001600160401b0381118282101715611e8057611e80611b20565b60405290565b60405160a081016001600160401b0381118282101715611e8057611e80611b20565b604051601f8201601f191681016001600160401b0381118282101715611ed057611ed0611b20565b604052919050565b600082601f830112611ee957600080fd5b81356001600160401b03811115611f0257611f02611b20565b611f15601f8201601f1916602001611ea8565b818152846020838601011115611f2a57600080fd5b816020850160208301376000918101602001919091529392505050565b600082601f830112611f5857600080fd5b81356001600160401b03811115611f7157611f71611b20565b611f8060208260051b01611ea8565b8082825260208201915060208360061b860101925085831115611fa257600080fd5b602085015b838110156109be5760408188031215611fbf57600080fd5b611fc7611e5e565b8135611fd28161164b565b8152602082810135818301529084529290920191604001611fa7565b600060a0823603121561200057600080fd5b612008611e86565b82358152612018602084016116a5565b602082015260408301356001600160401b0381111561203657600080fd5b61204236828601611ed8565b60408301525060608301356001600160401b0381111561206157600080fd5b61206d36828601611ed8565b60608301525060808301356001600160401b0381111561208c57600080fd5b61209836828601611f47565b60808301525092915050565b600080604083850312156120b757600080fd5b505080516020909101519092909150565b6060815260006120db60608301866117f2565b6001600160a01b039490941660208301525060400152919050565b60006020828403121561210857600080fd5b8151801515811461062457600080fd5b60006020828403121561212a57600080fd5b5051919050565b600082516121438184602087016117ce565b919091019291505056fea26469706673582212204c0a80763ea5999ae9caf2b04465ca0a01520bdbba888b2c38a7e529c3a7952d64736f6c634300081a003360a06040526000600255348015601457600080fd5b50604051611a0a380380611a0a8339810160408190526031916041565b6001600160a01b0316608052606f565b600060208284031215605257600080fd5b81516001600160a01b0381168114606857600080fd5b9392505050565b60805161197a61009060003960008181608f0152610148015261197a6000f3fe608060405234801561001057600080fd5b50600436106100575760003560e01c806336fbad261461005c5780635880ef3414610078578063dbe0b5b21461008d578063dff4b13f146100c7578063f0f3f2c8146100d1575b600080fd5b61006560025481565b6040519081526020015b60405180910390f35b6100806100e4565b60405161006f91906102de565b7f00000000000000000000000000000000000000000000000000000000000000005b6040516001600160a01b03909116815260200161006f565b6100cf610146565b005b6100af6100df36600461032a565b610256565b6060600180548060200260200160405190810160405280929190818152602001828054801561013c57602002820191906000526020600020905b81546001600160a01b0316815260019091019060200180831161011e575b5050505050905090565b7f000000000000000000000000000000000000000000000000000000000000000033604051610174906102d1565b6001600160a01b03928316815291166020820152604001604051809103906000f0801580156101a7573d6000803e3d6000fd5b50600080546001600160a01b03929092166001600160a01b0319928316811782556001805480820182559083527fb10e2d527612073b26eecdfd717e6a320cf44b4afac2b0732d9fcbe2b7fa0cf601805490931617909155600280549161020d83610343565b90915550506000546040516001600160a01b03909116815233907f8cb1f5e0b7508307e592a641586f535256dba226b02388100691c6133f65e22e9060200160405180910390a2565b600060025482106102a35760405162461bcd60e51b8152602060048201526013602482015272496e646578206f7574206f6620626f756e647360681b604482015260640160405180910390fd5b600182815481106102b6576102b661036a565b6000918252602090912001546001600160a01b031692915050565b6115c48061038183390190565b602080825282518282018190526000918401906040840190835b8181101561031f5783516001600160a01b03168352602093840193909201916001016102f8565b509095945050505050565b60006020828403121561033c57600080fd5b5035919050565b60006001820161036357634e487b7160e01b600052601160045260246000fd5b5060010190565b634e487b7160e01b600052603260045260246000fdfe60a06040526005805461ffff60a01b1916905534801561001e57600080fd5b506040516115c43803806115c483398101604081905261003d916100b5565b6001600160a01b0380821660805282166100695760405162b30c8d60e31b815260040160405180910390fd5b50600080546001600160a01b039092166001600160a01b03199283168117909155600580549092161790556100e8565b80516001600160a01b03811681146100b057600080fd5b919050565b600080604083850312156100c857600080fd5b6100d183610099565b91506100df60208401610099565b90509250929050565b60805161148961013b600039600081816102e6015281816103c9015281816104c0015281816105c701528181610611015281816107bd0152818161089f015281816109b101526109d801526114896000f3fe6080604052600436106101215760003560e01c806381158fe3116100a0578063c83bb1a611610064578063c83bb1a614610362578063ca1d209d14610377578063d7b4750c14610397578063dba6335f146103b7578063dc0d3dff146103eb57600080fd5b806381158fe3146102c2578063893d20e8146102d75780639a33e3001461030a578063ab7cc84d1461032c578063ad7a672f1461034c57600080fd5b80633ccfd60b116100e75780633ccfd60b1461021e5780633e413bee1461023557806348f770ba146102555780635c6b932b1461027557806377b53ece146102a257600080fd5b806213c58a146101845780622772c2146101ad57806306434322146101c257806312b58349146101f457806329f5633f1461020957600080fd5b3661017f5760405162461bcd60e51b815260206004820152602360248201527f5468697320636f6e747261637420646f6573206e6f74206163636570742065746044820152623432b960e91b60648201526084015b60405180910390fd5b600080fd5b34801561019057600080fd5b5061019a60025481565b6040519081526020015b60405180910390f35b3480156101b957600080fd5b5061019a61040b565b3480156101ce57600080fd5b506005546001600160a01b03165b6040516001600160a01b0390911681526020016101a4565b34801561020057600080fd5b5060035461019a565b34801561021557600080fd5b5061019a61047e565b34801561022a57600080fd5b506102336104b5565b005b34801561024157600080fd5b506000546101dc906001600160a01b031681565b34801561026157600080fd5b506102336102703660046110e8565b61066c565b34801561028157600080fd5b5061019a610290366004611101565b60066020526000908152604090205481565b3480156102ae57600080fd5b506005546101dc906001600160a01b031681565b3480156102ce57600080fd5b5061019a6106f3565b3480156102e357600080fd5b507f00000000000000000000000000000000000000000000000000000000000000006101dc565b34801561031657600080fd5b5061031f610724565b6040516101a49190611155565b34801561033857600080fd5b5061023361034736600461119e565b6107b2565b34801561035857600080fd5b5061019a60035481565b34801561036e57600080fd5b50610233610894565b34801561038357600080fd5b506102336103923660046110e8565b610a31565b3480156103a357600080fd5b506101dc6103b23660046110e8565b610c34565b3480156103c357600080fd5b506101dc7f000000000000000000000000000000000000000000000000000000000000000081565b3480156103f757600080fd5b506101dc6104063660046110e8565b610c64565b600080546040516370a0823160e01b81523060048201526001600160a01b03909116906370a08231906024015b602060405180830381865afa158015610455573d6000803e3d6000fd5b505050506040513d601f19601f820116820180604052508101906104799190611259565b905090565b60008054604051636eb1769f60e11b81523360048201523060248201526001600160a01b039091169063dd62ed3e90604401610438565b336001600160a01b037f000000000000000000000000000000000000000000000000000000000000000016146104fe576040516330cd747160e01b815260040160405180910390fd5b60025460035410156105455760405162461bcd60e51b815260206004820152601060248201526f11dbd85b081b9bdd081c995858da195960821b6044820152606401610176565b600080546040516370a0823160e01b81523060048201526001600160a01b03909116906370a0823190602401602060405180830381865afa15801561058e573d6000803e3d6000fd5b505050506040513d601f19601f820116820180604052508101906105b29190611259565b6000549091506105ec906001600160a01b03167f000000000000000000000000000000000000000000000000000000000000000083610c8e565b60006003556005805460ff60a81b1916600160a81b1790556040516001600160a01b037f000000000000000000000000000000000000000000000000000000000000000016907feaff4b37086828766ad3268786972c0cd24259d4c87a80f9d3963a3c3d999b0d906106619084815260200190565b60405180910390a250565b600554600160a81b900460ff16156106c65760405162461bcd60e51b815260206004820152601b60248201527f50726f6a65637420697320616c726561647920636f6d706c65746500000000006044820152606401610176565b60006106d5620f424083611288565b6000549091506106ef906001600160a01b03163083610cf6565b5050565b600080546040516370a0823160e01b81523360048201526001600160a01b03909116906370a0823190602401610438565b60018054610731906112a5565b80601f016020809104026020016040519081016040528092919081815260200182805461075d906112a5565b80156107aa5780601f1061077f576101008083540402835291602001916107aa565b820191906000526020600020905b81548152906001019060200180831161078d57829003601f168201915b505050505081565b336001600160a01b037f000000000000000000000000000000000000000000000000000000000000000016146107fb576040516330cd747160e01b815260040160405180910390fd5b600554600160a01b900460ff16156108605760405162461bcd60e51b815260206004820152602260248201527f4e616d6520616e6420676f616c2068617320616c7265616479206265656e2073604482015261195d60f21b6064820152608401610176565b600161086c838261132d565b5061087a620f424082611288565b60025550506005805460ff60a01b1916600160a01b179055565b336001600160a01b037f000000000000000000000000000000000000000000000000000000000000000016146108dd576040516330cd747160e01b815260040160405180910390fd5b60016003541061092f5760405162461bcd60e51b815260206004820152601960248201527f546f74616c2062616c616e6365206973206e6f74207a65726f000000000000006044820152606401610176565b600080546040516370a0823160e01b81523060048201526001600160a01b03909116906370a0823190602401602060405180830381865afa158015610978573d6000803e3d6000fd5b505050506040513d601f19601f8201168201806040525081019061099c9190611259565b6000549091506109d6906001600160a01b03167f000000000000000000000000000000000000000000000000000000000000000083610c8e565b7f00000000000000000000000000000000000000000000000000000000000000006001600160a01b03167feaff4b37086828766ad3268786972c0cd24259d4c87a80f9d3963a3c3d999b0d8260405161066191815260200190565b600554600160a81b900460ff1615610a8b5760405162461bcd60e51b815260206004820152601b60248201527f50726f6a65637420697320616c726561647920636f6d706c65746500000000006044820152606401610176565b6000610a9a620f424083611288565b9050610aa581610e0b565b610ac257604051630ed91f1d60e41b815260040160405180910390fd5b6000546040516323b872dd60e01b8152336004820152306024820152604481018390526001600160a01b03909116906323b872dd906064016020604051808303816000875af1158015610b19573d6000803e3d6000fd5b505050506040513d601f19601f82011682018060405250810190610b3d91906113ec565b610b7b5760405162461bcd60e51b815260206004820152600f60248201526e151c985b9cd9995c8819985a5b1959608a1b6044820152606401610176565b3360009081526006602052604081208054839290610b9a90849061140e565b925050819055508060036000828254610bb3919061140e565b9091555050600480546001810182556000919091527f8a35acfbc15ff81a39ae7d344fd709f28e8600b4aa8c65c6b64bfe7fe36bd19b0180546001600160a01b031916339081179091556040518281527f54a5b8782470a0d2c022b3b9e5e729503ac5dbdfe053afeb4559f9297f7565a69060200160405180910390a25050565b600060048281548110610c4957610c49611421565b6000918252602090912001546001600160a01b031692915050565b60048181548110610c7457600080fd5b6000918252602090912001546001600160a01b0316905081565b6040516001600160a01b038316602482015260448101829052610cf190849063a9059cbb60e01b906064015b60408051601f198184030181529190526020810180516001600160e01b03166001600160e01b031990931692909217909152610e86565b505050565b801580610d705750604051636eb1769f60e11b81523060048201526001600160a01b03838116602483015284169063dd62ed3e90604401602060405180830381865afa158015610d4a573d6000803e3d6000fd5b505050506040513d601f19601f82011682018060405250810190610d6e9190611259565b155b610ddb5760405162461bcd60e51b815260206004820152603660248201527f5361666545524332303a20617070726f76652066726f6d206e6f6e2d7a65726f60448201527520746f206e6f6e2d7a65726f20616c6c6f77616e636560501b6064820152608401610176565b6040516001600160a01b038316602482015260448101829052610cf190849063095ea7b360e01b90606401610cba565b60008054604051636eb1769f60e11b815233600482015230602482015283916001600160a01b03169063dd62ed3e90604401602060405180830381865afa158015610e5a573d6000803e3d6000fd5b505050506040513d601f19601f82011682018060405250810190610e7e9190611259565b101592915050565b6000610edb826040518060400160405280602081526020017f5361666545524332303a206c6f772d6c6576656c2063616c6c206661696c6564815250856001600160a01b0316610f589092919063ffffffff16565b805190915015610cf15780806020019051810190610ef991906113ec565b610cf15760405162461bcd60e51b815260206004820152602a60248201527f5361666545524332303a204552433230206f7065726174696f6e20646964206e6044820152691bdd081cdd58d8d9595960b21b6064820152608401610176565b6060610f678484600085610f6f565b949350505050565b606082471015610fd05760405162461bcd60e51b815260206004820152602660248201527f416464726573733a20696e73756666696369656e742062616c616e636520666f6044820152651c8818d85b1b60d21b6064820152608401610176565b600080866001600160a01b03168587604051610fec9190611437565b60006040518083038185875af1925050503d8060008114611029576040519150601f19603f3d011682016040523d82523d6000602084013e61102e565b606091505b509150915061103f8783838761104a565b979650505050505050565b606083156110b95782516000036110b2576001600160a01b0385163b6110b25760405162461bcd60e51b815260206004820152601d60248201527f416464726573733a2063616c6c20746f206e6f6e2d636f6e74726163740000006044820152606401610176565b5081610f67565b610f6783838151156110ce5781518083602001fd5b8060405162461bcd60e51b81526004016101769190611155565b6000602082840312156110fa57600080fd5b5035919050565b60006020828403121561111357600080fd5b81356001600160a01b038116811461112a57600080fd5b9392505050565b60005b8381101561114c578181015183820152602001611134565b50506000910152565b6020815260008251806020840152611174816040850160208701611131565b601f01601f19169190910160400192915050565b634e487b7160e01b600052604160045260246000fd5b600080604083850312156111b157600080fd5b823567ffffffffffffffff8111156111c857600080fd5b8301601f810185136111d957600080fd5b803567ffffffffffffffff8111156111f3576111f3611188565b604051601f8201601f19908116603f0116810167ffffffffffffffff8111828210171561122257611222611188565b60405281815282820160200187101561123a57600080fd5b8160208401602083013760006020928201830152969401359450505050565b60006020828403121561126b57600080fd5b5051919050565b634e487b7160e01b600052601160045260246000fd5b808202811582820484141761129f5761129f611272565b92915050565b600181811c908216806112b957607f821691505b6020821081036112d957634e487b7160e01b600052602260045260246000fd5b50919050565b601f821115610cf157806000526020600020601f840160051c810160208510156113065750805b601f840160051c820191505b818110156113265760008155600101611312565b5050505050565b815167ffffffffffffffff81111561134757611347611188565b61135b8161135584546112a5565b846112df565b6020601f82116001811461138f57600083156113775750848201515b600019600385901b1c1916600184901b178455611326565b600084815260208120601f198516915b828110156113bf578785015182556020948501946001909201910161139f565b50848210156113dd5786840151600019600387901b60f8161c191681555b50505050600190811b01905550565b6000602082840312156113fe57600080fd5b8151801515811461112a57600080fd5b8082018082111561129f5761129f611272565b634e487b7160e01b600052603260045260246000fd5b60008251611449818460208701611131565b919091019291505056fea2646970667358221220dc65c4761b69c961c9c794590a1133a2cdb5f29fb1c4914a2f9ecf66687470aa64736f6c634300081a0033a26469706673582212207587811deaa89eea87d6c527f9c5eddef47d7fe6d475897916b3a807216ac6a664736f6c634300081a0033","linkReferences":{}},"methodIdentifiers":{"acceptOwnership()":"79ba5097","ccipReceive((bytes32,uint64,bytes,bytes,(address,uint256)[]))":"85572ffb","deleteSenderForSourceChain(uint64)":"e62aa19f","getControllerAddress()":"c57380a2","getFailedMessages(uint256,uint256)":"8d9d89fe","getProjectTest(uint256)":"65023472","getRouter()":"b0f479a1","owner()":"8da5cb5b","processMessage((bytes32,uint64,bytes,bytes,(address,uint256)[]))":"cf6730f8","retryFailedMessage(bytes32,address)":"369f7f66","s_messageContents(bytes32)":"d0d1fc3d","s_senders(uint64)":"3b6efe14","setSenderForSourceChain(uint64,address)":"ded394a3","supportsInterface(bytes4)":"01ffc9a7","transferOwnership(address)":"f2fde38b","transferTokenToProject(address,uint256)":"d1e889ae"},"id":51}